{
  "contractName": "AuctionBase",
  "abi": [
    {
      "constant": false,
      "inputs": [],
      "name": "unpause",
      "outputs": [],
      "payable": false,
      "stateMutability": "nonpayable",
      "type": "function"
    },
    {
      "constant": true,
      "inputs": [
        {
          "name": "",
          "type": "uint256"
        }
      ],
      "name": "auctions",
      "outputs": [
        {
          "name": "nftAddress",
          "type": "address"
        },
        {
          "name": "tokenId",
          "type": "uint256"
        },
        {
          "name": "seller",
          "type": "address"
        },
        {
          "name": "bidIncrement",
          "type": "uint128"
        },
        {
          "name": "duration",
          "type": "uint256"
        },
        {
          "name": "startBlock",
          "type": "uint256"
        },
        {
          "name": "startedAt",
          "type": "uint256"
        },
        {
          "name": "highestBid",
          "type": "uint256"
        },
        {
          "name": "highestBidder",
          "type": "address"
        },
        {
          "name": "cancelled",
          "type": "bool"
        }
      ],
      "payable": false,
      "stateMutability": "view",
      "type": "function"
    },
    {
      "constant": true,
      "inputs": [],
      "name": "paused",
      "outputs": [
        {
          "name": "",
          "type": "bool"
        }
      ],
      "payable": false,
      "stateMutability": "view",
      "type": "function"
    },
    {
      "constant": false,
      "inputs": [],
      "name": "pause",
      "outputs": [],
      "payable": false,
      "stateMutability": "nonpayable",
      "type": "function"
    },
    {
      "constant": true,
      "inputs": [],
      "name": "owner",
      "outputs": [
        {
          "name": "",
          "type": "address"
        }
      ],
      "payable": false,
      "stateMutability": "view",
      "type": "function"
    },
    {
      "constant": false,
      "inputs": [
        {
          "name": "newOwner",
          "type": "address"
        }
      ],
      "name": "transferOwnership",
      "outputs": [],
      "payable": false,
      "stateMutability": "nonpayable",
      "type": "function"
    },
    {
      "payable": true,
      "stateMutability": "payable",
      "type": "fallback"
    },
    {
      "anonymous": false,
      "inputs": [
        {
          "indexed": false,
          "name": "id",
          "type": "uint256"
        },
        {
          "indexed": false,
          "name": "nftAddress",
          "type": "address"
        },
        {
          "indexed": false,
          "name": "tokenId",
          "type": "uint256"
        }
      ],
      "name": "AuctionCreated",
      "type": "event"
    },
    {
      "anonymous": false,
      "inputs": [
        {
          "indexed": false,
          "name": "id",
          "type": "uint256"
        },
        {
          "indexed": false,
          "name": "nftAddress",
          "type": "address"
        },
        {
          "indexed": false,
          "name": "tokenId",
          "type": "uint256"
        }
      ],
      "name": "AuctionSuccessful",
      "type": "event"
    },
    {
      "anonymous": false,
      "inputs": [
        {
          "indexed": false,
          "name": "id",
          "type": "uint256"
        },
        {
          "indexed": false,
          "name": "nftAddress",
          "type": "address"
        },
        {
          "indexed": false,
          "name": "tokenId",
          "type": "uint256"
        }
      ],
      "name": "AuctionCancelled",
      "type": "event"
    },
    {
      "anonymous": false,
      "inputs": [
        {
          "indexed": false,
          "name": "id",
          "type": "uint256"
        },
        {
          "indexed": false,
          "name": "nftAddress",
          "type": "address"
        },
        {
          "indexed": false,
          "name": "tokenId",
          "type": "uint256"
        },
        {
          "indexed": false,
          "name": "bidder",
          "type": "address"
        },
        {
          "indexed": false,
          "name": "bid",
          "type": "uint256"
        }
      ],
      "name": "BidCreated",
      "type": "event"
    },
    {
      "anonymous": false,
      "inputs": [
        {
          "indexed": false,
          "name": "id",
          "type": "uint256"
        },
        {
          "indexed": false,
          "name": "nftAddress",
          "type": "address"
        },
        {
          "indexed": false,
          "name": "tokenId",
          "type": "uint256"
        },
        {
          "indexed": false,
          "name": "withdrawer",
          "type": "address"
        }
      ],
      "name": "AuctionNFTWithdrawal",
      "type": "event"
    },
    {
      "anonymous": false,
      "inputs": [
        {
          "indexed": false,
          "name": "id",
          "type": "uint256"
        },
        {
          "indexed": false,
          "name": "nftAddress",
          "type": "address"
        },
        {
          "indexed": false,
          "name": "tokenId",
          "type": "uint256"
        },
        {
          "indexed": false,
          "name": "withdrawer",
          "type": "address"
        },
        {
          "indexed": false,
          "name": "amount",
          "type": "uint256"
        }
      ],
      "name": "AuctionFundWithdrawal",
      "type": "event"
    },
    {
      "anonymous": false,
      "inputs": [],
      "name": "Pause",
      "type": "event"
    },
    {
      "anonymous": false,
      "inputs": [],
      "name": "Unpause",
      "type": "event"
    },
    {
      "anonymous": false,
      "inputs": [
        {
          "indexed": true,
          "name": "previousOwner",
          "type": "address"
        },
        {
          "indexed": true,
          "name": "newOwner",
          "type": "address"
        }
      ],
      "name": "OwnershipTransferred",
      "type": "event"
    },
    {
      "constant": true,
      "inputs": [],
      "name": "getAuctionsCount",
      "outputs": [
        {
          "name": "",
          "type": "uint256"
        }
      ],
      "payable": false,
      "stateMutability": "view",
      "type": "function"
    },
    {
      "constant": true,
      "inputs": [
        {
          "name": "_auctionId",
          "type": "uint256"
        }
      ],
      "name": "getAuction",
      "outputs": [
        {
          "name": "id",
          "type": "uint256"
        },
        {
          "name": "nftAddress",
          "type": "address"
        },
        {
          "name": "tokenId",
          "type": "uint256"
        },
        {
          "name": "seller",
          "type": "address"
        },
        {
          "name": "bidIncrement",
          "type": "uint256"
        },
        {
          "name": "duration",
          "type": "uint256"
        },
        {
          "name": "startedAt",
          "type": "uint256"
        },
        {
          "name": "startBlock",
          "type": "uint256"
        },
        {
          "name": "status",
          "type": "uint8"
        },
        {
          "name": "highestBid",
          "type": "uint256"
        },
        {
          "name": "highestBidder",
          "type": "address"
        }
      ],
      "payable": false,
      "stateMutability": "view",
      "type": "function"
    },
    {
      "constant": true,
      "inputs": [
        {
          "name": "_auctionId",
          "type": "uint256"
        },
        {
          "name": "bidder",
          "type": "address"
        }
      ],
      "name": "getBid",
      "outputs": [
        {
          "name": "bid",
          "type": "uint256"
        }
      ],
      "payable": false,
      "stateMutability": "view",
      "type": "function"
    },
    {
      "constant": false,
      "inputs": [
        {
          "name": "_nftAddress",
          "type": "address"
        },
        {
          "name": "_tokenId",
          "type": "uint256"
        },
        {
          "name": "_bidIncrement",
          "type": "uint256"
        },
        {
          "name": "_duration",
          "type": "uint256"
        }
      ],
      "name": "createAuction",
      "outputs": [],
      "payable": false,
      "stateMutability": "nonpayable",
      "type": "function"
    },
    {
      "constant": false,
      "inputs": [
        {
          "name": "_auctionId",
          "type": "uint256"
        }
      ],
      "name": "bid",
      "outputs": [
        {
          "name": "success",
          "type": "bool"
        }
      ],
      "payable": true,
      "stateMutability": "payable",
      "type": "function"
    },
    {
      "constant": false,
      "inputs": [
        {
          "name": "_auctionId",
          "type": "uint256"
        }
      ],
      "name": "withdrawBalance",
      "outputs": [
        {
          "name": "success",
          "type": "bool"
        }
      ],
      "payable": false,
      "stateMutability": "nonpayable",
      "type": "function"
    },
    {
      "constant": false,
      "inputs": [
        {
          "name": "_nftAddress",
          "type": "address"
        },
        {
          "name": "_tokenId",
          "type": "uint256"
        }
      ],
      "name": "cancelAuction",
      "outputs": [],
      "payable": false,
      "stateMutability": "nonpayable",
      "type": "function"
    },
    {
      "constant": false,
      "inputs": [
        {
          "name": "_auctionId",
          "type": "uint256"
        }
      ],
      "name": "cancelAuction",
      "outputs": [],
      "payable": false,
      "stateMutability": "nonpayable",
      "type": "function"
    }
  ],
  "bytecode": "0x606060405260008060146101000a81548160ff021916908315150217905550336000806101000a81548173ffffffffffffffffffffffffffffffffffffffff021916908373ffffffffffffffffffffffffffffffffffffffff16021790555061209f8061006d6000396000f3006060604052600436106100d0576000357c0100000000000000000000000000000000000000000000000000000000900463ffffffff1680633f4ba83a146100d5578063454a2ab3146100ea578063571a26a01461011a5780635c975abb1461023c57806361beb1d71461026957806378bd7935146102bd5780638456cb59146103cc578063859b97fe146103e15780638da5cb5b1461042357806396b5a75514610478578063da76d5cd1461049b578063e45c1879146104d6578063eba1b60b146104ff578063f2fde38b14610555575b600080fd5b34156100e057600080fd5b6100e861058e565b005b610100600480803590602001909190505061064c565b604051808215151515815260200191505060405180910390f35b341561012557600080fd5b61013b6004808035906020019091905050610900565b604051808b73ffffffffffffffffffffffffffffffffffffffff1673ffffffffffffffffffffffffffffffffffffffff1681526020018a81526020018973ffffffffffffffffffffffffffffffffffffffff1673ffffffffffffffffffffffffffffffffffffffff168152602001886fffffffffffffffffffffffffffffffff166fffffffffffffffffffffffffffffffff1681526020018781526020018681526020018581526020018481526020018373ffffffffffffffffffffffffffffffffffffffff1673ffffffffffffffffffffffffffffffffffffffff168152602001821515151581526020019a505050505050505050505060405180910390f35b341561024757600080fd5b61024f6109ec565b604051808215151515815260200191505060405180910390f35b341561027457600080fd5b6102bb600480803573ffffffffffffffffffffffffffffffffffffffff169060200190919080359060200190919080359060200190919080359060200190919050506109ff565b005b34156102c857600080fd5b6102de6004808035906020019091905050610f12565b604051808c81526020018b73ffffffffffffffffffffffffffffffffffffffff1673ffffffffffffffffffffffffffffffffffffffff1681526020018a81526020018973ffffffffffffffffffffffffffffffffffffffff1673ffffffffffffffffffffffffffffffffffffffff16815260200188815260200187815260200186815260200185815260200184600281111561037657fe5b60ff1681526020018381526020018273ffffffffffffffffffffffffffffffffffffffff1673ffffffffffffffffffffffffffffffffffffffff1681526020019b50505050505050505050505060405180910390f35b34156103d757600080fd5b6103df611169565b005b34156103ec57600080fd5b610421600480803573ffffffffffffffffffffffffffffffffffffffff16906020019091908035906020019091905050611229565b005b341561042e57600080fd5b61043661128c565b604051808273ffffffffffffffffffffffffffffffffffffffff1673ffffffffffffffffffffffffffffffffffffffff16815260200191505060405180910390f35b341561048357600080fd5b61049960048080359060200190919050506112b1565b005b34156104a657600080fd5b6104bc60048080359060200190919050506112bd565b604051808215151515815260200191505060405180910390f35b34156104e157600080fd5b6104e961171a565b6040518082815260200191505060405180910390f35b341561050a57600080fd5b61053f600480803590602001909190803573ffffffffffffffffffffffffffffffffffffffff16906020019091905050611727565b6040518082815260200191505060405180910390f35b341561056057600080fd5b61058c600480803573ffffffffffffffffffffffffffffffffffffffff16906020019091905050611794565b005b6000809054906101000a900473ffffffffffffffffffffffffffffffffffffffff1673ffffffffffffffffffffffffffffffffffffffff163373ffffffffffffffffffffffffffffffffffffffff161415156105e957600080fd5b600060149054906101000a900460ff16151561060457600080fd5b60008060146101000a81548160ff0219169083151502179055507f7805862f689e2f13df9f062ff482ad3ad112aca9e0847911ed832e158c525b3360405160405180910390a1565b60008060008060149054906101000a900460ff1615151561066c57600080fd5b600084610678816118e9565b600281111561068357fe5b82600281111561068f57fe5b14151561069b57600080fd5b6000341115156106aa57600080fd5b6002868154811015156106b957fe5b90600052602060002090600a0201935061071d348560070160003373ffffffffffffffffffffffffffffffffffffffff1673ffffffffffffffffffffffffffffffffffffffff1681526020019081526020016000205461195190919063ffffffff16565b92508360030160009054906101000a90046fffffffffffffffffffffffffffffffff166fffffffffffffffffffffffffffffffff16846008015401831015151561076657600080fd5b828460080181905550338460090160006101000a81548173ffffffffffffffffffffffffffffffffffffffff021916908373ffffffffffffffffffffffffffffffffffffffff160217905550828460070160008660090160009054906101000a900473ffffffffffffffffffffffffffffffffffffffff1673ffffffffffffffffffffffffffffffffffffffff1673ffffffffffffffffffffffffffffffffffffffff168152602001908152602001600020819055507f8e95abbc5d001f3802b92e5afb2a821501ed900760b48b459ec3d1eee25a5eae868560000160009054906101000a900473ffffffffffffffffffffffffffffffffffffffff1686600101543387604051808681526020018573ffffffffffffffffffffffffffffffffffffffff1673ffffffffffffffffffffffffffffffffffffffff1681526020018481526020018373ffffffffffffffffffffffffffffffffffffffff1673ffffffffffffffffffffffffffffffffffffffff1681526020018281526020019550505050505060405180910390a16001945050505050919050565b60028181548110151561090f57fe5b90600052602060002090600a02016000915090508060000160009054906101000a900473ffffffffffffffffffffffffffffffffffffffff16908060010154908060020160009054906101000a900473ffffffffffffffffffffffffffffffffffffffff16908060030160009054906101000a90046fffffffffffffffffffffffffffffffff16908060040154908060050154908060060154908060080154908060090160009054906101000a900473ffffffffffffffffffffffffffffffffffffffff16908060090160149054906101000a900460ff1690508a565b600060149054906101000a900460ff1681565b600080610a0a611ea4565b60008060149054906101000a900460ff16151515610a2757600080fd5b8793503373ffffffffffffffffffffffffffffffffffffffff168473ffffffffffffffffffffffffffffffffffffffff16636352211e896000604051602001526040518263ffffffff167c010000000000000000000000000000000000000000000000000000000002815260040180828152602001915050602060405180830381600087803b1515610ab857600080fd5b6102c65a03f11515610ac957600080fd5b5050506040518051905073ffffffffffffffffffffffffffffffffffffffff16141515610af557600080fd5b603c8510151515610b0557600080fd5b610b19600e8661196f90919063ffffffff16565b92508373ffffffffffffffffffffffffffffffffffffffff166323b872dd33308a6040518463ffffffff167c0100000000000000000000000000000000000000000000000000000000028152600401808473ffffffffffffffffffffffffffffffffffffffff1673ffffffffffffffffffffffffffffffffffffffff1681526020018373ffffffffffffffffffffffffffffffffffffffff1673ffffffffffffffffffffffffffffffffffffffff1681526020018281526020019350505050600060405180830381600087803b1515610bf157600080fd5b6102c65a03f11515610c0257600080fd5b505050610140604051908101604052808973ffffffffffffffffffffffffffffffffffffffff1681526020018881526020013373ffffffffffffffffffffffffffffffffffffffff168152602001876fffffffffffffffffffffffffffffffff16815260200184815260200143815260200142815260200160008152602001600073ffffffffffffffffffffffffffffffffffffffff168152602001600015158152509150600160028054806001018281610cbd9190611f4e565b91600052602060002090600a0201600085909190915060008201518160000160006101000a81548173ffffffffffffffffffffffffffffffffffffffff021916908373ffffffffffffffffffffffffffffffffffffffff1602179055506020820151816001015560408201518160020160006101000a81548173ffffffffffffffffffffffffffffffffffffffff021916908373ffffffffffffffffffffffffffffffffffffffff16021790555060608201518160030160006101000a8154816fffffffffffffffffffffffffffffffff02191690836fffffffffffffffffffffffffffffffff1602179055506080820151816004015560a0820151816005015560c0820151816006015560e082015181600801556101008201518160090160006101000a81548173ffffffffffffffffffffffffffffffffffffffff021916908373ffffffffffffffffffffffffffffffffffffffff1602179055506101208201518160090160146101000a81548160ff021916908315150217905550505003905080600160008a73ffffffffffffffffffffffffffffffffffffffff1673ffffffffffffffffffffffffffffffffffffffff1681526020019081526020016000206000898152602001908152602001600020819055507f6ff530872708bbb51bad8ea341564e4ea039807ad1331f61ab4c906a66875daf818989604051808481526020018373ffffffffffffffffffffffffffffffffffffffff1673ffffffffffffffffffffffffffffffffffffffff168152602001828152602001935050505060405180910390a15050505050505050565b6000806000806000806000806000806000610f2b611ea4565b600060028e815481101515610f3c57fe5b90600052602060002090600a020161014060405190810160405290816000820160009054906101000a900473ffffffffffffffffffffffffffffffffffffffff1673ffffffffffffffffffffffffffffffffffffffff1673ffffffffffffffffffffffffffffffffffffffff168152602001600182015481526020016002820160009054906101000a900473ffffffffffffffffffffffffffffffffffffffff1673ffffffffffffffffffffffffffffffffffffffff1673ffffffffffffffffffffffffffffffffffffffff1681526020016003820160009054906101000a90046fffffffffffffffffffffffffffffffff166fffffffffffffffffffffffffffffffff166fffffffffffffffffffffffffffffffff168152602001600482015481526020016005820154815260200160068201548152602001600882015481526020016009820160009054906101000a900473ffffffffffffffffffffffffffffffffffffffff1673ffffffffffffffffffffffffffffffffffffffff1673ffffffffffffffffffffffffffffffffffffffff1681526020016009820160149054906101000a900460ff16151515158152505091506110fb8e6118e9565b90508d826000015183602001518460400151856060015186608001518760c001518860a00151888a60e001518b6101000151866fffffffffffffffffffffffffffffffff1696509c509c509c509c509c509c509c509c509c509c509c50505091939597999b90929496989a50565b6000809054906101000a900473ffffffffffffffffffffffffffffffffffffffff1673ffffffffffffffffffffffffffffffffffffffff163373ffffffffffffffffffffffffffffffffffffffff161415156111c457600080fd5b600060149054906101000a900460ff161515156111e057600080fd5b6001600060146101000a81548160ff0219169083151502179055507f6985a02210a168e66602d3235cb6db0e70f92b3ba4d376a33c0f3d9434bff62560405160405180910390a1565b6000600160008473ffffffffffffffffffffffffffffffffffffffff1673ffffffffffffffffffffffffffffffffffffffff16815260200190815260200160002060008381526020019081526020016000205490506112878161198a565b505050565b6000809054906101000a900473ffffffffffffffffffffffffffffffffffffffff1681565b6112ba8161198a565b50565b60008060008060006112ce866118e9565b93506002868154811015156112df57fe5b90600052602060002090600a020192508260020160009054906101000a900473ffffffffffffffffffffffffffffffffffffffff1673ffffffffffffffffffffffffffffffffffffffff163373ffffffffffffffffffffffffffffffffffffffff16141561139e5760028081111561135357fe5b84600281111561135f57fe5b14151561136b57600080fd5b8260090160009054906101000a900473ffffffffffffffffffffffffffffffffffffffff16915082600801549050611591565b8260090160009054906101000a900473ffffffffffffffffffffffffffffffffffffffff1673ffffffffffffffffffffffffffffffffffffffff163373ffffffffffffffffffffffffffffffffffffffff1614156115495760028081111561140257fe5b84600281111561140e57fe5b14151561141a57600080fd5b6114718360000160009054906101000a900473ffffffffffffffffffffffffffffffffffffffff168460090160009054906101000a900473ffffffffffffffffffffffffffffffffffffffff168560010154611d72565b7f7c3bee1c21d0d6657418b9cf495597b5ec8426492563555a5aa18dc1aa0bd5ba868460000160009054906101000a900473ffffffffffffffffffffffffffffffffffffffff16856001015433604051808581526020018473ffffffffffffffffffffffffffffffffffffffff1673ffffffffffffffffffffffffffffffffffffffff1681526020018381526020018273ffffffffffffffffffffffffffffffffffffffff1673ffffffffffffffffffffffffffffffffffffffff16815260200194505050505060405180910390a160019450611711565b3391508260070160008373ffffffffffffffffffffffffffffffffffffffff1673ffffffffffffffffffffffffffffffffffffffff1681526020019081526020016000205490505b6000811115156115a057600080fd5b6115f4818460070160008573ffffffffffffffffffffffffffffffffffffffff1673ffffffffffffffffffffffffffffffffffffffff16815260200190815260200160002054611e3390919063ffffffff16565b503373ffffffffffffffffffffffffffffffffffffffff166108fc829081150290604051600060405180830381858888f19350505050151561163557600080fd5b7ff232428054e03129be379038f9e5e06d6aecf64e30dabdaa79338f85727315e4868460000160009054906101000a900473ffffffffffffffffffffffffffffffffffffffff1685600101543385604051808681526020018573ffffffffffffffffffffffffffffffffffffffff1673ffffffffffffffffffffffffffffffffffffffff1681526020018481526020018373ffffffffffffffffffffffffffffffffffffffff1673ffffffffffffffffffffffffffffffffffffffff1681526020018281526020019550505050505060405180910390a1600194505b50505050919050565b6000600280549050905090565b60008060028481548110151561173957fe5b90600052602060002090600a020190508060070160008473ffffffffffffffffffffffffffffffffffffffff1673ffffffffffffffffffffffffffffffffffffffff1681526020019081526020016000205491505092915050565b6000809054906101000a900473ffffffffffffffffffffffffffffffffffffffff1673ffffffffffffffffffffffffffffffffffffffff163373ffffffffffffffffffffffffffffffffffffffff161415156117ef57600080fd5b600073ffffffffffffffffffffffffffffffffffffffff168173ffffffffffffffffffffffffffffffffffffffff161415151561182b57600080fd5b8073ffffffffffffffffffffffffffffffffffffffff166000809054906101000a900473ffffffffffffffffffffffffffffffffffffffff1673ffffffffffffffffffffffffffffffffffffffff167f8be0079c531659141344cd1fd0a4f28419497f9722a3daafe3b4186f6b6457e060405160405180910390a3806000806101000a81548173ffffffffffffffffffffffffffffffffffffffff021916908373ffffffffffffffffffffffffffffffffffffffff16021790555050565b6000806002838154811015156118fb57fe5b90600052602060002090600a020190508060090160149054906101000a900460ff161561192b576001915061194b565b4381600401548260050154011015611946576002915061194b565b600091505b50919050565b600080828401905083811015151561196557fe5b8091505092915050565b600080828481151561197d57fe5b0490508091505092915050565b60008082611997816118e9565b60028111156119a257fe5b8260028111156119ae57fe5b1415156119ba57600080fd5b836119c3611ea4565b6002828154811015156119d257fe5b90600052602060002090600a020161014060405190810160405290816000820160009054906101000a900473ffffffffffffffffffffffffffffffffffffffff1673ffffffffffffffffffffffffffffffffffffffff1673ffffffffffffffffffffffffffffffffffffffff168152602001600182015481526020016002820160009054906101000a900473ffffffffffffffffffffffffffffffffffffffff1673ffffffffffffffffffffffffffffffffffffffff1673ffffffffffffffffffffffffffffffffffffffff1681526020016003820160009054906101000a90046fffffffffffffffffffffffffffffffff166fffffffffffffffffffffffffffffffff166fffffffffffffffffffffffffffffffff168152602001600482015481526020016005820154815260200160068201548152602001600882015481526020016009820160009054906101000a900473ffffffffffffffffffffffffffffffffffffffff1673ffffffffffffffffffffffffffffffffffffffff1673ffffffffffffffffffffffffffffffffffffffff1681526020016009820160149054906101000a900460ff1615151515815250509050806040015173ffffffffffffffffffffffffffffffffffffffff163373ffffffffffffffffffffffffffffffffffffffff16141515611bc657600080fd5b600286815481101515611bd557fe5b90600052602060002090600a0201945060018560090160146101000a81548160ff02191690831515021790555060008560090160006101000a81548173ffffffffffffffffffffffffffffffffffffffff021916908373ffffffffffffffffffffffffffffffffffffffff160217905550611c788560000160009054906101000a900473ffffffffffffffffffffffffffffffffffffffff168660010154611e4c565b611ccf8560000160009054906101000a900473ffffffffffffffffffffffffffffffffffffffff168660020160009054906101000a900473ffffffffffffffffffffffffffffffffffffffff168760010154611d72565b7f6a3d5a07d548e27ae884a742682e9b929c0a0e4040990bc28c04637c5c077104868660000160009054906101000a900473ffffffffffffffffffffffffffffffffffffffff168760010154604051808481526020018373ffffffffffffffffffffffffffffffffffffffff1673ffffffffffffffffffffffffffffffffffffffff168152602001828152602001935050505060405180910390a1505050505050565b60008390508073ffffffffffffffffffffffffffffffffffffffff1663a9059cbb84846040518363ffffffff167c0100000000000000000000000000000000000000000000000000000000028152600401808373ffffffffffffffffffffffffffffffffffffffff1673ffffffffffffffffffffffffffffffffffffffff16815260200182815260200192505050600060405180830381600087803b1515611e1957600080fd5b6102c65a03f11515611e2a57600080fd5b50505050505050565b6000828211151515611e4157fe5b818303905092915050565b600160008373ffffffffffffffffffffffffffffffffffffffff1673ffffffffffffffffffffffffffffffffffffffff1681526020019081526020016000206000828152602001908152602001600020600090555050565b61014060405190810160405280600073ffffffffffffffffffffffffffffffffffffffff16815260200160008152602001600073ffffffffffffffffffffffffffffffffffffffff16815260200160006fffffffffffffffffffffffffffffffff16815260200160008152602001600081526020016000815260200160008152602001600073ffffffffffffffffffffffffffffffffffffffff1681526020016000151581525090565b815481835581811511611f7b57600a0281600a028360005260206000209182019101611f7a9190611f80565b5b505050565b61207091905b8082111561206c57600080820160006101000a81549073ffffffffffffffffffffffffffffffffffffffff021916905560018201600090556002820160006101000a81549073ffffffffffffffffffffffffffffffffffffffff02191690556003820160006101000a8154906fffffffffffffffffffffffffffffffff021916905560048201600090556005820160009055600682016000905560088201600090556009820160006101000a81549073ffffffffffffffffffffffffffffffffffffffff02191690556009820160146101000a81549060ff021916905550600a01611f86565b5090565b905600a165627a7a723058207e1794700ee01948133745a57583f1b2c999f923c8eac3c5b8eada65e36d04ec0029",
  "source": "pragma solidity ^0.4.18;\n\nimport \"zeppelin-solidity/contracts/lifecycle/Pausable.sol\";\nimport \"zeppelin-solidity/contracts/math/SafeMath.sol\";\nimport \"./erc721/ERC721.sol\";\n\n/// @title AuctionBase\n/// @dev Contains models, variables, and internal methods for the auction.\ncontract AuctionBase is Pausable {\n  using SafeMath for uint256;\n\n  // Active: Auction is accepting bids and is not cancelled.\n  // Cancelled: The seller cancelled the auction.\n  // Completed: Winning bid decided, but NFT and bid transfers are yet to happen.\n  enum AuctionStatus { Active, Cancelled, Completed }\n\n  struct Auction {\n    // static\n    address nftAddress; // NFT address\n    uint256 tokenId; // ID of the nft\n    address seller; // Current owner of NFT\n    uint128 bidIncrement; // Minimum bid increment (in Wei)\n    uint256 duration; // Block count for when the auction ends\n    uint256 startBlock; // Block number when auction started\n    uint256 startedAt; // Approximate time for when the auction was started\n\n    // state\n    mapping (address => uint256) fundsByBidder; // Mapping of addresses to funds\n    uint256 highestBid; // Current highest bid\n    address highestBidder; // Address of current highest bidder\n    bool cancelled; // Flag for cancelled auctions\n  }\n\n  // Map from token ID to their corresponding auction ID.\n  mapping (address => mapping(uint256 => uint256)) nftToTokenIdToAuctionId;\n  Auction[] public auctions;\n\n  event AuctionCreated(uint256 id, address nftAddress, uint256 tokenId);\n  event AuctionSuccessful(uint256 id, address nftAddress, uint256 tokenId);\n  event AuctionCancelled(uint256 id, address nftAddress, uint256 tokenId);\n  event BidCreated(\n    uint256 id, address nftAddress, uint256 tokenId, address bidder, uint256 bid\n  );\n  event AuctionNFTWithdrawal(\n    uint256 id, address nftAddress, uint256 tokenId, address withdrawer\n  );\n  event AuctionFundWithdrawal(\n    uint256 id, address nftAddress, uint256 tokenId, address withdrawer, uint256 amount\n  );\n\n  // External functions\n\n  // @dev Retrieve auctions count\n  function getAuctionsCount() public view returns (uint256) {\n    return auctions.length;\n  }\n\n  // @dev Returns auction info for an NFT on auction.\n  // @param _auctionId - auction index/ID\n  function getAuction(uint256 _auctionId)\n    external\n    view\n    returns\n  (\n    uint256 id,\n    address nftAddress,\n    uint256 tokenId,\n    address seller,\n    uint256 bidIncrement,\n    uint256 duration,\n    uint256 startedAt,\n    uint256 startBlock,\n    AuctionStatus status,\n    uint256 highestBid,\n    address highestBidder\n  ) {\n    Auction memory _auction = auctions[_auctionId];\n    AuctionStatus _status = _getAuctionStatus(_auctionId);\n    return (\n      _auctionId,\n      _auction.nftAddress,\n      _auction.tokenId,\n      _auction.seller,\n      _auction.bidIncrement,\n      _auction.duration,\n      _auction.startedAt,\n      _auction.startBlock,\n      _status,\n      _auction.highestBid,\n      _auction.highestBidder\n    );\n  }\n\n  // @dev Return bid for given auction ID and bidder\n  function getBid(uint256 _auctionId, address bidder)\n    external\n    view\n    returns (uint256 bid)\n  {\n    Auction storage auction = auctions[_auctionId];\n    return auction.fundsByBidder[bidder];\n  }\n\n  // @dev Creates and begins a new auction.\n  // @_duration is in seconds and is converted to block count.\n  function createAuction(\n    address _nftAddress,\n    uint256 _tokenId,\n    uint256 _bidIncrement,\n    uint256 _duration\n  )\n    external\n    whenNotPaused\n  {\n    // Get nft\n    ERC721 nftContract = ERC721(_nftAddress);\n\n    // Require msg.sender to own nft\n    require(nftContract.ownerOf(_tokenId) == msg.sender);\n\n    // Require duration to be at least a minute and calculate block count\n    require(_duration >= 60);\n    uint256 durationBlockCount = _duration.div(uint256(14));\n\n    // Put nft in escrow\n    nftContract.transferFrom(msg.sender, this, _tokenId);\n\n    Auction memory _auction = Auction({\n      nftAddress: _nftAddress,\n      tokenId: _tokenId,\n      seller: msg.sender,\n      bidIncrement: uint128(_bidIncrement),\n      duration: durationBlockCount,\n      startedAt: now,\n      startBlock: block.number,\n      highestBid: 0,\n      highestBidder: address(0),\n      cancelled: false\n    });\n    uint256 newAuctionId = auctions.push(_auction) - 1;\n\n    // Add auction index to nftToTokenIdToAuctionId mapping\n    nftToTokenIdToAuctionId[_nftAddress][_tokenId] = newAuctionId;\n\n    AuctionCreated(newAuctionId, _nftAddress, _tokenId);\n  }\n\n  // @dev Implements a simplified English auction\n  // Lets msg.sender bid highestBid + bidIncrement and stores bids in fundsByBidder\n  // TODO: Look into the experience of bidding in an English Auction asyncronously\n  function bid(uint256 _auctionId)\n    external\n    payable\n    whenNotPaused\n    statusIs(AuctionStatus.Active, _auctionId)\n    returns (bool success)\n  {\n    require(msg.value > 0);\n\n    Auction storage auction = auctions[_auctionId];\n\n    // Require newBid be greater than or equal to highestBid + bidIncrement\n    uint256 newBid = auction.fundsByBidder[msg.sender].add(msg.value);\n    require(newBid >= auction.highestBid + auction.bidIncrement);\n\n    // Update fundsByBidder mapping\n    auction.highestBid = newBid;\n    auction.highestBidder = msg.sender;\n    auction.fundsByBidder[auction.highestBidder] = newBid;\n\n    // Emit BidCreated event\n    BidCreated(_auctionId, auction.nftAddress, auction.tokenId, msg.sender, newBid);\n    return true;\n  }\n\n  // @dev Allow people to withdraw their balances or the NFT\n  function withdrawBalance(uint256 _auctionId) external returns (bool success) {\n    AuctionStatus _status = _getAuctionStatus(_auctionId);\n\n    Auction storage auction = auctions[_auctionId];\n    address fundsFrom;\n    uint withdrawalAmount;\n\n    // The seller gets receives highest bid when the auction is completed.\n    if (msg.sender == auction.seller) {\n      require(_status == AuctionStatus.Completed);\n      fundsFrom = auction.highestBidder;\n      withdrawalAmount = auction.highestBid;\n\n      // TODO: The auction house gets a cut of the withdrawal amount.\n    }\n    // Highest bidder can only withdraw the NFT when the auction is completed.\n    // When the auction is cancelled, the highestBidder is set to address(0).\n    else if (msg.sender == auction.highestBidder) {\n      require(_status == AuctionStatus.Completed);\n      _transfer(auction.nftAddress, auction.highestBidder, auction.tokenId);\n      AuctionNFTWithdrawal(_auctionId, auction.nftAddress, auction.tokenId, msg.sender);\n      return true;\n    }\n    // Anyone else gets what they bid\n    else {\n      fundsFrom = msg.sender;\n      withdrawalAmount = auction.fundsByBidder[fundsFrom];\n    }\n\n    require(withdrawalAmount > 0);\n    auction.fundsByBidder[fundsFrom].sub(withdrawalAmount);\n    msg.sender.transfer(withdrawalAmount);\n\n    AuctionFundWithdrawal(\n      _auctionId,\n      auction.nftAddress,\n      auction.tokenId,\n      msg.sender,\n      withdrawalAmount\n    );\n    return true;\n  }\n\n  function cancelAuction(address _nftAddress, uint256 _tokenId) external {\n    uint256 auctionId = nftToTokenIdToAuctionId[_nftAddress][_tokenId];\n    _cancelAuction(auctionId);\n  }\n\n  function cancelAuction(uint256 _auctionId) external {\n    _cancelAuction(_auctionId);\n  }\n\n  /// @dev Reject all Ether from being sent here\n  function() external payable {\n    revert();\n  }\n\n  // Internal functions\n\n  /// @dev Transfers an NFT owned by this contract to another address.\n  /// Returns true if the transfer succeeds.\n  /// @param _nft - The address of the NFT.\n  /// @param _receiver - Address to transfer NFT to.\n  /// @param _tokenId - ID of token to transfer.\n  function _transfer(address _nft, address _receiver, uint256 _tokenId) internal {\n    ERC721 nftContract = ERC721(_nft);\n\n    // it will throw if transfer fails\n    nftContract.transfer(_receiver, _tokenId);\n  }\n\n  /// @dev Cancels an auction unconditionally.\n  function _cancelAuction(uint256 _auctionId)\n    internal\n    statusIs(AuctionStatus.Active, _auctionId)\n    onlySeller(_auctionId)\n  {\n    Auction storage auction = auctions[_auctionId];\n    auction.cancelled = true;\n    auction.highestBidder = address(0);\n\n    _removeAuction(auction.nftAddress, auction.tokenId);\n    _transfer(auction.nftAddress, auction.seller, auction.tokenId);\n\n    AuctionCancelled(_auctionId, auction.nftAddress, auction.tokenId);\n  }\n\n  /// @dev Removes an auction from mapping\n  function _removeAuction(address _nft, uint256 _tokenId) internal {\n    delete nftToTokenIdToAuctionId[_nft][_tokenId];\n  }\n\n  function _getAuctionStatus(uint256 _auctionId)\n    internal\n    view\n    returns (AuctionStatus)\n  {\n    Auction storage auction = auctions[_auctionId];\n\n    if (auction.cancelled) {\n      return AuctionStatus.Cancelled;\n    }\n    else if (auction.startBlock + auction.duration < block.number) {\n      return AuctionStatus.Completed;\n    }\n    else {\n      return AuctionStatus.Active;\n    }\n  }\n\n  // Modifiers\n\n  modifier onlySeller(uint256 _auctionId) {\n    Auction memory auction = auctions[_auctionId];\n    require(msg.sender == auction.seller);\n    _;\n  }\n\n  modifier statusIs(AuctionStatus expectedStatus, uint256 _auctionId) {\n    require(expectedStatus == _getAuctionStatus(_auctionId));\n    _;\n  }\n}\n",
  "sourcePath": "/Users/fmc/Desktop/Projects/auction-house/contracts/AuctionBase.sol",
  "compiler": {
    "name": "solc",
    "version": "0.4.19+commit.c4cbbb05.Emscripten.clang"
  },
  "schemaVersion": "1.0.1",
  "updatedAt": "2018-02-09T23:30:01.119Z"
}